:020000040800F2
:1000000078960020ED020008E9CB0008B1A20008B4
:10001000E5CB0008350F0008DD11010800000000E5
:1000200000000000000000000000000021020008A5
:10003000390F0008000000006502000855D80008CC
:100040000703000807030008070300080703000868
:100050000703000807030008070300080703000858
:100060000703000807030008070300080703000848
:100070000703000807030008070300080703000838
:100080000703000807030008070300080703000828
:100090000703000807030008070300080703000818
:1000A0000703000807030008070300080703000808
:1000B00007030008070300080703000807030008F8
:1000C00007030008070300080703000807030008E8
:1000D00007030008070300080703000807030008D8
:1000E00007030008070300080703000807030008C8
:1000F00007030008070300080703000807030008B8
:1001000007030008070300080703000807030008A7
:100110000703000807030008070300080703000897
:100120000703000807030008070300080703000887
:1001300000F002F800F065F80AA090E8000C824494
:100140008344AAF10107DA4501D100F05AF8AFF271
:10015000090EBAE80F0013F0010F18BFFB1A43F0A5
:100160000103184740D2060060D2060010F8013B98
:100170000A4413F0030408BF10F8014B1D1108BF17
:1001800010F8015B641E05D010F8016B641E01F8C5
:10019000016BF9D1002D15D010F8014B03F00C03C1
:1001A0000C2BA1EB04040ABF10F8013BA4EB831451
:1001B000A4EB032405F1010314F8016B5B1E01F8A5
:1001C000016BF9D5914238BF10F8013BD1D370478C
:1001D0000023002400250026103A28BF78C1FBD850
:1001E000520728BF30C148BF0B607047692900F033
:1001F000E580002070471FB500F031F91FBD10B534
:1002000010BD00F099FB1146FFF7F5FF25F0A0FDAA
:1002100000F0B7FB03B4FFF7F2FF03BC00F0B8FB3C
:10022000224B19680868B0E8F00F80F30988BFF323
:100230006F8F4FF0000080F311884EF00D0E704765
:100240000000000006480068006880F3088862B675
:1002500061B6BFF34F8FBFF36F8F00DF00BF00BFEA
:1002600008ED00E0EFF30980BFF36F8F0F4B1A68C2
:1002700020E9F00F106008B54FF0BF0080F311883F
:10028000BFF34F8FBFF36F8F26F07EFA4FF0000061
:1002900080F31188BDE8084019680868B0E8F00FDD
:1002A00080F30988BFF36F8F704700BF24000020E0
:1002B000EFF30580704700000B49D1F800C04A6891
:1002C0005CF8043B1068184442F8040B8C4528BFC6
:1002D000A1F1DC0C8A4228BFA1F1DC02C1F800C008
:1002E0004A6020F000407047109000200948804785
:1002F00009480047FEE7FEE7FEE7FEE7FEE7FEE708
:10030000FEE7FEE7FEE7FEE704480549054A064B1F
:100310007047000089D8000831010008789000205B
:100320007896002078920020789200200FB41CB5B7
:10033000074B06AA7B4469460090059800F09FFA97
:100340000020694600F0AEFA1CBC5DF814FB00000A
:100350006D0500002DE9F0410E46044600202062A4
:100360002046E168884730B3252805D0D4E901212B
:100370009047206A401CF2E7E16820460027884742
:10038000050018D0A5F14100192802D820354FF4F6
:1003900000673246294620462760FFF727FF40B115
:1003A000012804D0F61D26F007060836D8E7361DCA
:1003B000D6E72846DAE7206ABDE8F0812DE9F0416A
:1003C0000646002410687529314616A510D0AFF3F3
:1003D0000080002802DA404213A507E031688A074E
:1003E00001D512A502E0490704D511A5012401E0B9
:1003F000AFF3008000210A2206F1240709E0B0FBD8
:10040000F2FCB0FBF2F302FB1C00303078541846CB
:10041000491C0028F3D123462A463046BDE8F04166
:1004200000F0CEB9000000002D0000002B000000FD
:10043000200000000B4910B5A1F17C020A4CC2E972
:100440003712372106E000EB104342F82130074B0A
:1004500000FB03400B1EA1F10101F4DC10BD0120E3
:10046000E8E70000B08F0020E119D666CD0D01004D
:1004700040EA0103024630B59B0710D14FF001342A
:1004800000E008C208C91D1B9D4315EAC41FF8D02F
:1004900013F0FF0102F8011B0DD01B0AF8E711F859
:1004A000013B002B02F8013B05D011F8013B002B6A
:1004B00002F8013BF3D130BD10B5431C02E010F847
:1004C000011B71B18107FAD14FF0013202C88C1AB9
:1004D0008C4314EAC211F9D0C01A0A0603D0C01E18
:1004E00010BDC01A10BD0A0401D0801E10BD090243
:1004F000FCD0401E10BD421E12F8013F002BFBD164
:1005000011F8013B002B02F8013BF9D17047032A97
:1005100040F2308010F0030C00F0158011F8013B20
:10052000BCF1020F624498BF11F801CB00F8013B07
:1005300038BF11F8013BA2F1040298BF00F801CBCB
:1005400038BF00F8013B11F0030300F06780083A60
:10055000C0F0088051F8043B083A51F804CBA0E8F9
:100560000810F5E7121D5CBF51F8043B40F8043B4E
:10057000AFF30080D20724BF11F8013B11F801CB83
:1005800048BF11F8012B24BF00F8013B00F801CB54
:1005900048BF00F8012B7047431A28BF9A427FF6E4
:1005A000B6AF032A1044114440F2268010F0030F26
:1005B0001EBF11F8013D521E00F8013D10F0030F5F
:1005C0007FF4F6AF11F0030300F08481083AC0F025
:1005D0000B8051F8043D083A51F804CD40F8043D31
:1005E00040F804CDFFF7F3BF121D5CBF51F8043D86
:1005F00040F8043DAFF30080D20724BF11F8013D5D
:1006000011F801CD48BF11F8012C24BF00F8013DBD
:1006100000F801CD48BF00F8012C704710B5203A12
:10062000C0F00B80B1E81850203AA0E81850B1E8AB
:100630001850A0E81850BFF4F5AF5FEA027C24BF61
:10064000B1E81850A0E8185044BF18C918C0BDE858
:1006500010405FEA827C24BF51F8043B40F8043B21
:1006600008BF7047D20728BF31F8023B48BF11F8D6
:10067000012B28BF20F8023B48BF00F8012B704730
:1006800002F0FF0343EA032242EA024200F002B80A
:100690004FF000020429C0F0128010F0030C00F0AB
:1006A0001B80CCF1040CBCF1020F18BF00F8012B29
:1006B000A8BF20F8022BA1EB0C0100F00DB85FEAF7
:1006C000C17C24BF00F8012B00F8012B48BF00F8C3
:1006D000012B70474FF0000200B513469446964632
:1006E000203922BFA0E80C50A0E80C50B1F1200145
:1006F000BFF4F7AF090728BFA0E80C5048BF0CC0F3
:100700005DF804EB890028BF40F8042B08BF704750
:1007100048BF20F8022B11F0804F18BF00F8012BC2
:10072000704700004FF0013C50F8042B51F8043B97
:100730009A4221D1A2EB0C03934313EACC1317D1B5
:1007400050F8042B51F8043B9A4215D1A2EB0C034C
:10075000934313EACC130BD150F8042B51F8043B0C
:100760009A4209D1A2EB0C03934313EACC13DBD0DA
:100770004FF00000704700BFD01A01BAB1FA81F102
:1007800001F0180122FA01F0CB40C1F12001DBB2E7
:10079000C0B2C01A2CFA01F3D11A914311EAC31165
:1007A000E6D1704770477047704710B500F0BCF84D
:1007B000006810BD10B5044600F0B6F8046010BD26
:1007C0002DE9F0470D4699469246044600F124086B
:1007D0000168880604D5E06921F01001216000E07D
:1007E0000120A84201DD471B00E00027A1697A191A
:1007F00002EB0900081AA0612078C00602D4204646
:10080000AFF30080002608E0D4E901211AF80600C1
:100810009047206A401C761C20624E45F4DB20780D
:10082000C0060AD52046AFF3008006E0D4E90121D6
:1008300030209047206A401C2062381EA7F1010733
:10084000F4DC07E0D4E9012118F805009047206A9C
:10085000401C2062281EA5F10105F3DC2046AFF301
:1008600000802078000602D50220BDE8F087012034
:10087000FBE7000001694A1C02610878704700B577
:100880008FB0CDE901310021059105497944CDE9C9
:10089000031011466846FFF75DFD0FB000BD000074
:1008A000E5FFFFFF0A6802F8010B0A607047431A70
:1008B00028BF9A427FF6B2AE104410F0030F1144E5
:1008C0001EBF11F8013D521E00F8013D10F0030F4C
:1008D0007FF4F6AF103AC0F00A8010B531E9185035
:1008E000103A20E91850BFF4F9AFBDE810405307A3
:1008F00024BF31E9081020E9081044BF51F8043D35
:1009000040F8043D12F0030F08BF7047D20728BF1C
:1009100031F8023D48BF11F8012C28BF20F8023DF4
:1009200048BF00F8012C704700487047189000201D
:1009300000487047189000207546FFF7F9FFAE4653
:1009400005006946534620F00700854618B020B5DB
:10095000FFF7DAFCBDE820404FF000064FF000073B
:100960004FF000084FF0000B21F00701AC46ACE857
:10097000C009ACE8C009ACE8C009ACE8C0098D46C4
:1009800070470446AFF300802046FFF743FC7047F2
:1009900001491820ABBEFEE726000200002800DC5B
:1009A000404270471CB51A48012100234A02CDE994
:1009B000001018A11B4826F015F91B48022100233E
:1009C0000A02CDE9001019A11B4826F00BF91B48BB
:1009D000032100234FF40072CDE9001018A11B4839
:1009E00026F000F91A4804210023CA01CDE90010BD
:1009F00018A11B4826F0F6F80020012103464A0200
:100A0000CDE9001017A11A4826F0ECF81CBD000033
:100A100014000020765461736B5461736B557365D9
:100A200072494600E9670208180000207654617395
:100A30006B4C656400000000E56502081C000020A6
:100A4000765461736B4D736750726F0005660208D0
:100A500020000020765461736B537461727400003F
:100A600001670208765461736B57696E00000000DD
:100A7000FB67020838B5456804460146284610F071
:100A8000CFFB00282BD02068304A11280DD006DC7F
:100A90000B2825D00E2833D00F2852D112E0282859
:100AA00049D0B0F5107F4CD108E09268002A16D0EA
:100AB0002146284601B0BDE830401047214628466F
:100AC0005268F7E7284603F0D9FE0090406E0468AC
:100AD000684603F03DFF002C01D02846A04738BDF2
:100AE000284603F0CBFE0090683003F013FE009818
:100AF00003216C3003F01CFE684603F029FF20E060
:100B0000E168486809680D2902D0202913D105E061
:100B1000002810DD284620F068FC06E0002804DDEF
:100B20002846BDE8384020F060BC2846BDE8384083
:100B3000022120F070BCE06818B90021284600F0BE
:100B400099F92046BDE8384010F038BEF840002042
:100B5000F0B5044685B08069B4F90850668A00276C
:100B6000CDE90265CDE900170490B4F90C00B4F9A1
:100B70001060C118B4F90A00B4F90E50104433469D
:100B80002A4600F007F80546616800F089F905B0CB
:100B90002846F0BD2DE9F04F85B01F46DDE911B4C0
:100BA000DDE90E5690468946824606F0ADF81648B5
:100BB0004C34CDE90204CDE900563B464246494655
:100BC000504610F043FD040018D003F057FE1022E9
:100BD0005946049010F064FC049830220B493430DC
:100BE000FFF71CFD094D04990C3D2868486604A8D0
:100BF00003F0AEFE286841682046884707F07EFE75
:100C000005B02046BDE8F08F750A000804410020B9
:100C1000F0B5044680688B4989B051F8205060686F
:100C200000287DD0052804D006287AD0122879D152
:100C3000AEE0E86900284FD095E80E008DE80F007F
:100C400004F110010FC908F0B9FB002655F8260081
:100C500007F053FBA169E8690A1A21690144606938
:100C6000304404F079FFA169E8690A1A2169014456
:100C7000E069801B04F070FFE169E8690A1A6169A4
:100C800001442069304405F04FF8E169E8690A1A27
:100C900061690144A069801B05F046F8761C022EAC
:100CA000D4DBA86807F029FBE069E9696669431AA3
:100CB000206942183144801C521E05F0BFF8E169DA
:100CC000E869A2690B1A61690144101A401C921E5E
:100CD00005F0B4F8EE6913E05FF0000655F8260061
:100CE00007F00BFBE069831BA069821B6069811917
:100CF0002069304404F0A6FF761C022EEEDB0226AB
:100D0000D5E90301CDE900016169E06908444310B8
:100D1000A069891C821B2069304404F0B7FE02E000
:100D200089E012E08AE0D5E90501CDE90001E36937
:100D300060690121184401EB6001A0699B1E821BC0
:100D40002069304404F0A2FE78E0206803F096FDAC
:100D50000490206811F0AAFF40B1A06808B10020FB
:100D600008E00498006F28B1012003E00498406F68
:100D700000B10220049901EB8000C56E04A803F0C5
:100D8000E7FD00231A462846216804F011FB55E0D0
:100D9000206803F073FD0490866EEEB3B0F95C70CA
:100DA000A168D1B3032942D05FF0000100EB8101BB
:100DB000406D0C6C07F0D0FA204607F09EFA05A8AB
:100DC00005F0EAFBBDF81410A88B0144ADF814102F
:100DD000BDF81810081AADF81800BDF81600801CF0
:100DE000ADF81600BDF81A00801EADF81A00049880
:100DF000B0F96020B0F95E1005A807F051F804A81A
:100E000003F0A6FD022007F021FB304603F036FD7B
:100E10003A4605A9079001E00BE006E004F024FC47
:100E20000DF11C0003F094FD08E00121BEE7022152
:100E3000BCE704A8F6E7206811F08CFB09B000209D
:100E4000F0BD00009CBA0608044A03491160044939
:100E50004A6A48621046704734410020F84000203A
:100E60000441002000294FF0100101D010F06CBAAD
:100E700010F0B6B94FF480720029114601D010F07D
:100E800063BA10F0ADB9000003480249416003495C
:100E900081607047DB230208F840002039200208F7
:100EA0002DE9FF410E4605004FF0010421D005F069
:100EB0002BFF284603F0E2FC0190876E01A8009703
:100EC00003F046FD3146684608F0FEFD78B1009813
:100ED0000024B84208D0284603F0D0FC01900099C5
:100EE000816601A803F034FD284611F023F807F0CD
:100EF00005FD04B02046BDE8F08100001CB50121CD
:100F000040200CF0BDF824F001FE0AF0B9FE0CF010
:100F1000E7FD06A010210B464022CDE90010142168
:100F200008460AF001FD00F02DFE1CBD496E6974F3
:100F30002E2E2E0000BFFEE7704700002DE9FC5F5B
:100F400015460746DFF8908028440190D8F8002025
:100F50001C460E46526E2144894652689047D8F886
:100F60000020781B4946526E82465268904771199C
:100F700038190090D8F800208946526E5268904780
:100F8000D8F80020711B8B46526E0098526890472B
:100F9000002C1ED0D8F80010361B4546496E01982B
:100FA0004A68314690472A6831465046526E526828
:100FB000904728683C1B4946406E4268204690474F
:100FC0002A6859462046526E526802B0BDE8F05F6A
:100FD0001047BDE8FC9F0000104000202DE9F047BD
:100FE000044640688EB00027804603F047FC00901E
:100FF000B0F87CA0D0F86890D0F88060D0F8885025
:10100000C06D00B10768684603F0A2FC05E069689E
:1010100020468847002843D12D68002DF7D120684D
:10102000172853D00CDC0F283DD004DC0B2877D0D8
:101030000D2825D18BE0112810D0142820D13BE0B9
:10104000262846D004DC1E2851D0202818D18AE05A
:101050002A2816D0B0F5107F12D128E04046E56866
:1010600003F00CFC0290697A39B9297A012904D17C
:1010700030F87C1F41F48071018002A803F068FC05
:1010800075E0404603F0FAFB0090E16811B1C0F84A
:10109000841002E0D0F88400E060684603F058FC59
:1010A0000EB0BDE8F087D7B34046B8475FE02146B1
:1010B000404621F033F8F3E705A9404600F089FBEC
:1010C000E0680699016007994160E9E7C4F80C906F
:1010D000E6E7E0680228E3D1CDF83080E0680D90C3
:1010E00027200A900AA9A06811F0C2FFD8E7E0689B
:1010F000012804D00021404600F0C8FAD0E730466D
:1011000010F085FF68B1304611F09EF9304610F0BE
:101110003DFE98B10121304610F016F90EE026E0B0
:101120002FE0484611F0E4F90646404603F0A6FBDE
:101130000090C0F88060684603F00AFC0121404638
:1011400000F0A4FA002EABD10020E060A8E75FEA2F
:101150000A700CD4E068C06848B1007A38B14046E3
:1011600011F072F903E02146404620F071F9214662
:10117000404610F055F8002892D0204610F01EFB93
:101180008EE7404603F07AFB0090703003F0C2FA1D
:10119000684673E7F0B587B0B0F908400DF10C0C64
:1011A0000C9E876945688CE8F000448A0025CDE9EB
:1011B00000150294B0F90C10B0F91050B0F90E40BF
:1011C000B0F90A00194410442B46224600F002F8F8
:1011D00007B0F0BD2DE9F04F8BB09846DDE915560C
:1011E00091468A468346149F1A9C05F08DFD33482C
:1011F000603445F48055CDE90204CDE900754346DD
:101200004A465146584610F021FA04004FD003F0E8
:1012100035FB30220490179910F042F904982822E7
:1012200027493430FFF7FAF904981999244F416699
:10123000A0F87C600026C0F88060C666083FC0F851
:1012400088607968C16504A803F082FB05A920467F
:1012500000F0BFFA1B4841F2827103960094CDE979
:101260000110BDF91E00BDF91A10BDF91C20431A6A
:10127000BDF918005B1C121A521C10F0E7F9064663
:101280007868416820468847204603F0F7FA0490C2
:10129000866604A803F05CFB42F20400054202D11A
:1012A000204610F039FB2046189900F03BFA07F071
:1012B00025FB0BB02046BDE8F08F0000DD0F0008D5
:1012C000C84100208B1900082DE9F041044694B074
:1012D000006800F0B7F908B1D94D01E0D84D2C35C0
:1012E000606815281ED00CDC0B281FD004DC0028F9
:1012F0007ED005287DD12FE10E287BD01228F9D190
:1013000041E1162806D0172808D0182808D01C2834
:10131000F0D109E0E86914B0BDE8F081286AFAE785
:10132000686AF8E7A86AF6E76869F4E720680B904E
:101330001C200C90206803F0A1FA0390016D0BA80B
:101340008847064603A803F003FB022E0FDB95E84F
:1013500007008DE80700D4E904023346A16907F0CD
:10136000F3FF20698719A069A0EB06082CE0286824
:1013700006F0C3FF2169E8690A18521E606904F08B
:10138000EBFBA269E869111A491C606904F0E4FBEF
:10139000D4E904077F1C394604F02EFC3946A069C5
:1013A00004F02AFC686806F0A8FF20693946401C52
:1013B00004F022FCA0693946401E04F01DFCA0691F
:1013C0002769A0F10208BF1C286806F096FF424674
:1013D0003946606904F0C0FB686806F08EFF6069FA
:1013E00042463946401C04F0B7FB686A022802E016
:1013F00015E1B0E000E10BDDA86806F07EFF616951
:101400006A6A881C8B180146424638465B1E27E0F4
:10141000296AB14226DD6069022E074600F1020802
:1014200001DB374401E007F10207206901DB3044AA
:1014300001E000F1020022693B460A444146A2F164
:10144000010204F0FBFC022E02DBA069821B01E01A
:10145000A269921EA069E9693B46401A4146401CB8
:1014600004F0ECFC022E02DB6069064401E06669D0
:10147000B61CE76928687F1E06F03FFF3A463146F2
:10148000206904F051FC3A463146A06904F04CFC56
:10149000E7696868BF1E06F030FF20693A463146AA
:1014A000401C04F041FCA0693A463146401E04F05D
:1014B0003BFCE869022802DC286A022823DDA86ACE
:1014C000022802DDE1690F1A01E0E769BF1EA86882
:1014D00006F013FFE969022909DD20693B4642183D
:1014E00000F1020C31466046521E04F0A7FC286A47
:1014F000022808DDA269E8693B46101A3146401C03
:10150000921E04F09BFC286806F0F7FED4E9062042
:10151000216904F021FB686806F0EFFED4E906209B
:101520002169401E491C521E04F016FBA86A0228BD
:1015300011DDA1692669E469A1F10208271AA41E38
:10154000B61C7F1CA86806F0D8FE234642463946E2
:10155000304604F073FC71E0208A00B2ADF814004C
:10156000A18A09B2ADF81610228B12B2ADF818207C
:10157000A38B1BB2ADF81A302C69ED68CDE900548D
:1015800004F084FA5AE0208A298B0844ADF814004C
:10159000A08AADF81600208B298B401AADF81800F0
:1015A000A08BADF81A00206803F068F90390006F73
:1015B000F0B1022006F04AFF039890F87C10C1F3C6
:1015C000C00100EB8100006C06F097FE0398406BB1
:1015D00006F0C2FE0398006F03F050F903990990DA
:1015E000B1F95A2005A904F03FF809A803F0B0F9B1
:1015F00003A803F0ADF921E0208AADF81400A08A19
:10160000ADF81600208BADF81800A08BADF81A00CD
:10161000A86806F072FE05A804F03CFC0EE0206805
:1016200003F02CF9039030F85A1F41F00C010180AF
:1016300003A803F08DF9206810F08CFF00206AE603
:101640000442002038B505004FF000040FD005F02B
:101650005BFB284603F012F9009090F87C0000072D
:1016600000D50124684603F073F907F047F92046D6
:1016700038BD0000022905D2034A52F821102C225D
:10168000FEF7CCBF70470000ACBA060870B50D4637
:10169000040009D005F038FB2946204621F059FF07
:1016A000BDE8704007F02AB970BD0000074A06493E
:1016B000054B1160064A083BD16958601B68C2E9B6
:1016C0000630084670470000F8410020C441002061
:1016D000C841002070B50D460146022D1ED2104CA7
:1016E0002C2254F82500FEF799FF54F8251002200B
:1016F000CA69022A00DAC86154F825100A6A022A67
:1017000000DA086254F825104A6A022A00DA4862B0
:1017100054F825108A6A022A00DA886270BD000037
:10172000ACBA06087CB50D4604001DD005F0ECFAF5
:10173000204603F0A3F80090006F0190684603F084
:1017400007F9294601A808F0BFF958B1204603F06F
:1017500095F8009001990167684603F0F9F8204672
:1017600010F0E8FB07F0CAF87CBD38B50C46050060
:1017700013D005F0C9FA284603F080F80090B0F9BC
:101780005A10A14204D0A0F85A40284610F0D2FBCB
:10179000684603F0DDF807F0B1F838BD38B50C46FF
:1017A000050015D005F0B0FA284603F067F80022CE
:1017B000CDF8000000EB8201521C0C64022AF9D320
:1017C000684603F0C5F8284610F0B4FB07F096F819
:1017D00038BD2DE9F34F85B000270C46B846059873
:1017E00003F04CF80090C06D0121856805982A68C7
:1017F000904782462A6803210598904704902A68FA
:1018000002210598904703902A6800210598904787
:101810000646009811F0C8F88346009811F0CBF8FE
:101820008146009890F83210890601D5B0F95880A9
:1018300000F036F805460098C06E10B110F07FFA3F
:10184000074625806780A4F804A0049AABEB020049
:1018500006EB0802401E2A4420813A44E280039BA2
:10186000A9EB0302521E6281A4F80CA02082701919
:10187000E681401E6082684603F06AF8B4F90C0005
:101880000190B4F91000029002AA01A9059800F095
:1018900039F80198A0810298208207B0BDE8F08F46
:1018A00010B50146002091F83220920607D5B1F913
:1018B0005400002803D1486B04F0F6FE801C10BDD4
:1018C00070B58AB00C46054602F0D8FF0990C06D8D
:1018D000866809A803F03CF8009534B1012C06D0C5
:1018E000022C0BD0032C04D10AE0182000E01620B3
:1018F00001907168684688470AB070BD1520F7E707
:101900001720F5E72DE9FC4117468846044602F00A
:10191000B5FF0090C16D056868468E6803F018F841
:1019200032680021204690470646204610F0AFF866
:1019300027E000BF02F0A2FF0190B0F900102AB228
:10194000B0F90430891A9A1AB0F90230A3EB254392
:10195000B34210D190F82800000605D538688842B7
:1019600009DB491E396006E0D8F80000904202DC2D
:10197000521CC8F8002001A802F0EAFF204610F02F
:101980002BF90400D6D1BDE8FC812DE9F0430446D3
:10199000406889B0054610F03DF9814602F06EFFBF
:1019A0000290D0F84880D0F88070466E02A802F00D
:1019B000CFFF2068172853D008DC0E283AD00F2814
:1019C00011D014284CD015283DD149E01E281ED036
:1019D0001F282AD0222840D0312834D10020E060AE
:1019E00009B0BDE8F0836FF070414046884503D0F0
:1019F00009F050FD03F05AFB002EF1D0D4E9021299
:101A00002068CDE90405CDE9061204A81FE0E068CE
:101A10000028E5D02FB1AF4203D0384610F014FDB6
:101A2000DEE7284610F064FDDAE7214648460FF06D
:101A3000F7FBD5E7E0684168002904DD0068092864
:101A4000EFD00A2805D05EB12046C4F80490B04714
:101A5000C6E7284610F05BFDC2E7C4F80C80BFE77C
:101A600020460FF0ABFEBBE751B18200A2F1C042AD
:101A7000126842F001038200A2F1C042136009E043
:101A80008200A2F1C0421268034B1A408300A3F106
:101A9000C0431A6070470000FEFF0F00D0E901123A
:101AA0001143C268114302691143426911438269BB
:101AB0001143C2691143026A1143426A1143826AA7
:101AC0001143C26A1143026B114302689200A2F1F2
:101AD000C0421160816808290BD101688900A1F119
:101AE000C041096841F0400201688900A1F1C0418C
:101AF0000A60416B0968426B526841EA0211426B0D
:101B0000926841EA0221426B928941EA0241426BAA
:101B1000128A41EA0251426B127D41EA0261426B34
:101B2000926911430268521C9200A2F1C0421160F6
:101B3000C16AB1F5804F1BD1816B0968826B526815
:101B400041EA0211826B926841EA0221826B128A99
:101B500041EA0251826B127D41EA0261826B926915
:101B6000114302689200A2F1C042C2F8041107E0DA
:101B70006FF0704201688900A1F1C041C1F80421F1
:101B80007047000000B597B001214FF4F0700BF0E2
:101B900087FA012108020BF073FA4FF63370ADF8A3
:101BA000000018208DF8030003208DF8020069461C
:101BB000224800F0CDFB4FF68370ADF80000694677
:101BC0001F4800F0C5FB4FF23F00ADF8000069462A
:101BD0001C4800F0BDFB40F23F40ADF800006946F4
:101BE000194800F0B5FB00200190029003200390FB
:101BF0000020049005900690079004200890002093
:101C000009900A9010200B9000200C900E900D90DF
:101C10000F9010904FF4805011900020129013906C
:101C2000149001A81590169008A8FFF737FF01211E
:101C30000420FFF719FF17B000BD00000014014099
:101C400000180140001C0140002001402DE9F04334
:101C50000446C56887B090468946002006F070FBB0
:101C6000064625B1287910B146F0020001E026F0C1
:101C7000020006F065FB2069012558B1D4E9021283
:101C80008DE826000395638822880468414648460B
:101C9000A0471EE0124F134B214638681B68427C58
:101CA000E068984730B9E088012801D0002001E0C1
:101CB0003868806BA288E388A1680095CDE904109C
:101CC000CDE902320195638822884146484608F0F2
:101CD0003DFC07B03046BDE8F04306F031BB0000E4
:101CE00010400020084000202DE9F047814688463A
:101CF00040F2C32050434FF47A7190FBF1F502FBA0
:101D000002F002EBD27100EB610617460023414658
:101D100048466D1CFFF712F9012413E004FB04F0A0
:101D200007FB0700B04206DD3B46224641464846D7
:101D3000FFF704F97F1E3B46224641464846FFF71F
:101D4000FDF8641CAC42E9DDBDE8F0871CB5002459
:101D5000019401AC009400F0E7F81CBD2DE9FF4FA1
:101D600083B0814606988A46A0EB0A08109E0020A0
:101D70000090A2EB09043568934654EA080018D095
:101D80002046FEF70BFE07464046FEF707FE874259
:101D90000BDA2046444680464846D146824658469D
:101DA000DDF818B0069001200090002C07DD2046D9
:101DB00006E007B04846BDE8F04F00F03BB960428E
:101DC000A0420AD04846D9466442C8F1000883467A
:101DD0004FF0FF37DDF818A000E001275148B8F1B7
:101DE000000F11D004EBD4714FEA610B01DACBF193
:101DF000000B4C480068807E88B3002F02DA306800
:101E00002044306000257BE000990029016821D042
:101E1000897E11B10027804615E007B05A46494631
:101E20005046BDE8F04F08F005BD28466D1C21F076
:101E3000DBFC38B9D8F8000009EB0701406E4268B6
:101E4000504690477F1CA742EFDD6D1E356007B0FE
:101E5000BDE8F08F8A7E1AB10027804617E019E0AE
:101E6000486E5A465146036807B04846BDE8F04FF1
:101E7000184728466D1C21F0B7FC38B9D8F8001077
:101E800009EB0700496E4A68514690477F1CA742FC
:101E9000EFDDDAE700250FE008FB05B090FBF4F179
:101EA00001EB0A00009951B11E4A09EB05011268C5
:101EB000526E526890476D1CA542EDDDC7E7194987
:101EC00009EB05030968496E4A6801461846F1E7BF
:101ED00008FB05B090FBF4F101EB0A0001903068BB
:101EE0003844306021F080FC48B9009890B10D482A
:101EF00009EB05010068406E4268019890476D1C2F
:101F0000A542E5DD3068002F01DA20443060C01BB7
:101F100030609CE7034909EB05000968496E4A688F
:101F20000199EBE7104000202DE9FF470F4640499B
:101F30001646804609680C981D460A7E012A1CD068
:101F4000A8EB0600791B50EA01031CD0A2F101099D
:101F500023F076FB00F58060824607F0DEFE00FB92
:101F600009F4504607F0DEFE00FB09F1002C0CDA04
:101F7000C4F50070801240420AE0009032463946B3
:101F80004046FFF7EBFEBDE8FF8704F50074A012A2
:101F9000002904DAC1F5007189124C4202E001F512
:101FA00000718C12002804DD411C01EBD171491035
:101FB00003E000EBD0714910401E00EBD0704210DE
:101FC000002C04DD601C00EBD070401003E004EB3B
:101FD000D4704010641E04EBD47308EB0104ADF818
:101FE00000403C18ADF80240A8EB02045B10B21AA6
:101FF000ADF80440ADF808203144FC1AEA1AADF8F7
:102000000C102844ADF80A20ADF80E000023ADF8FE
:1020100006401A460421684600F08CF839464046CE
:1020200018F0FAFD2946304618F0F6FDABE700003F
:1020300010400020064A13681A7E012A05D0521E5D
:1020400002EBD272521000F005B85A6E5268104777
:10205000104000202DE9F05F0646884640F2C3207C
:1020600002FB00F14FF47A7091FBF0F702FB02F1F2
:1020700002EBD27001EB600B1446B118234A301BFF
:102080007F1C1268526E13680A4641469847012524
:1020900038E000BF05FB05F004FB040159451CDDD9
:1020A000BC4219DD194B06EB050AA6EB05091B68B6
:1020B000AAF1010208EB04015B6E09F101001B6843
:1020C0009847124BAAF10102A8EB04011B6809F121
:1020D00001005B6E1B689847641E0C4B3219301B65
:1020E0001B68924608EB05015B6E81461B689847AA
:1020F000064B5246A8EB05011B6848465B6E1B6801
:1021000098476D1CBD42C5DDBDE8F09F1040002022
:1021100070B514460E4605460119001B02F046FA3A
:102120002246314628461AF07BFEBDE8704002F098
:1021300057B900002DE9FF4F43F6FF740F46664282
:1021400083B09B46814600210BE000BF09EB810074
:10215000B0F90200A04200DA0446B04200DD0646B3
:10216000491CB942F2DB67480068406900280DD07D
:10217000B0F906101A46A1EB0B01B14200DA0E4687
:10218000B0F90200801AA04200DD0446B4E0DFF896
:1021900078A100200546CAF8000088E0781E854234
:1021A00001DA6B1C00E0002309EB850C09EB8302CC
:1021B000BCF90200B2F90210A04244D1A14215D1EB
:1021C00039F92330059A39F9251003EB020C4D4AF1
:1021D00005981268084404EB0B01526E60451368C1
:1021E00001DA62462AE00246604627E02846A44615
:1021F0004FF000087A1E0BE008B1401E00E0781E88
:1022000009EB8003B3F90230634504D108F10108FA
:102210009045F1DB2346A34248D01A1B39F925002B
:10222000A1EB040C059B92EA0C0F09D4354A184423
:1022300004EB0B011268526E13680246984735E0B2
:1022400011F08CF832E0A14230D001DBA04203DD76
:10225000A0422BDBA14229DCE04688420ADC03468F
:10226000A04223DC0846A14220DBB8F900C0B2F945
:10227000001008E00B46A14218DCA04216DBB2F9C0
:1022800000C0B8F90010E21AA1EB0C01514300297B
:10229000A0EB030202DD01EB620102E0A1EB6201AF
:1022A000491CC01A91FBF0F06044C9E76D1CBD42A7
:1022B000FFF674AF0598009004EB0B00019000202E
:1022C0008046054613E01149B8F1000F31F915A019
:1022D00009D0009901EB0A0208440A490968496ECD
:1022E0000B680199984788F0010850466D1C064913
:1022F00009688D42E7DB641CB4427FF748AF07B042
:10230000BDE8F08F10400020E84400204C8E0020F3
:1023100010B5002005F0DAFF6FF07F4005F0EDFF0B
:10232000012006F075F8002006F080F8002006F085
:102330008DF8002006F004F80448006806F00CF858
:10234000BDE81040002006F035B800000C40002029
:102350002DE9F0410246002500260020002300243C
:10236000002791F803C00CF00F0591F803C00CF0A2
:10237000100CBCF1000F03D091F802C04CEA050527
:1023800091F800C0BCF1000F31D0146800202BE0A0
:102390004FF0010C0CFA00F3B1F800C00CEA030690
:1023A0009E4220D183004FF00F0C0CFA03F7BC4380
:1023B00005FA03FC4CEA040491F803C0BCF1280FB1
:1023C00006D14FF0010C0CFA00FCC2F814C00AE070
:1023D00091F803C0BCF1480F05D14FF0010C0CFA85
:1023E00000FCC2F810C0401C0828D1D31460B1F81A
:1023F00000C0BCF1FF0F34DD546800202EE000F176
:10240000080C4FF0010808FA0CF3B1F800C00CEA10
:1024100003069E4221D183004FF00F0C0CFA03F704
:10242000BC4305FA03FC4CEA040491F803C0BCF178
:10243000280F05D100F1080C08FA0CF8C2F8148036
:1024400091F803C0BCF1480F07D100F1080C4FF020
:10245000010808FA0CF8C2F81080401C0828CED3F6
:102460005460BDE8F081416170470161704733B548
:1024700083B004001BD004F047FC204602F0FEF9B4
:102480000190456E01A802F063FA049802F0F6F993
:1024900000908460684602F05BFA042204A9284692
:1024A00002F07AFA20460FF045FD06F027FA05B053
:1024B00030BD33B583B004001BD004F025FC2046AA
:1024C00002F0DCF90190856E01A802F041FA04984F
:1024D00002F0D4F900908460684602F039FA0422D0
:1024E00004A9284602F058FA20460FF023FD06F012
:1024F00005FA05B030BD2DE9F04104460025D4E9C8
:102500000007B0F5407F00D10125214638460EF086
:1025100087FE064615B138461EF0F4FB002E2FD07C
:102520002068052806D00B280ED00F2806D02628B4
:1025300021D10EE038461EF0E5FB1CE03846E1688C
:10254000BDE8F0411FF0F8B83846BDE8F0411EF094
:10255000AEBFE06805280ED138460FF095FBA168A4
:10256000884205D038460FF07FFBA168884202D12F
:1025700060681FF083FD2046BDE8F0410FF01EB9F2
:10258000BDE8F081F0B585B00DF1280C9CE8F000B5
:102590004FF0000C8DE8F01000F002F805B0F0BD2F
:1025A0002DE9F04F85B09846DDE90E5691468A46F2
:1025B0008346109F129C04F0A7FB18486C34CDE9A9
:1025C0000204CDE9005643464A46514658460FF0AC
:1025D0003DF804001BD002F01CFA054602F019FA7F
:1025E0000646204602F04AF90490C0E91956002236
:1025F00011990EF055FF0498302209493430FEF746
:102600000DF80498A0F8787004A802F0A1F906F07B
:1026100075F905B02046BDE8F08F0000F7240008EA
:102620005C42002013B582B0044604F06DFB2046E6
:1026300002F024F9009060B1406A02F01FF90146EF
:102640000190022303AA009800F0C8F901A802F043
:102650007FF9684602F07CF906F050F91FBD0000D2
:102660002DE9F04385B01D4690460F46814604F0A3
:102670004BFB2C2002F005F8060024D0780002F075
:1026800000F804000ED0B8F1000F0BD055B1204671
:1026900002F0F4F86A0041460090FDF738FF684602
:1026A00002F056F9304602F0E9F80A49029000F1CA
:1026B0000C02446282E8A2020749016007494160B6
:1026C00002A802F045F906F019F905B03046BDE858
:1026D000F08300008D070208E31802083F15020886
:1026E00010B5044604F010FB20461EF028FFBDE89C
:1026F000104006F003B92DE9FC47894607002BD0AE
:1027000004F002FB384602F0B9F80190466E01A8C9
:1027100002F01EF9304602F0D4F90546002414E018
:102720002146304602F0D9F970B102F0A7F80090C6
:10273000D0F80080684602F00BF9C84504D1214664
:10274000304602F091F902E0641CAC42E8DB384606
:102750000FF0F0FB06F0D2F8BDE8FC872DE9FC474E
:10276000894607002BD004F0CFFA384602F086F8ED
:102770000190866E01A802F0EBF8304602F0A1F954
:102780000546002414E02146304602F0A6F970B157
:1027900002F074F80090D0F80080684602F0D8F893
:1027A000C84504D12146304602F05EF902E0641CBF
:1027B000AC42E8DB38460FF0BDFB06F09FF8BDE801
:1027C000FC8700002DE9F843984615460E4607465B
:1027D00004F09AFA302001F054FF040014D002F003
:1027E0004DF80090C0E9057685840A4A4FF07E5185
:1027F000C0F81C808162D2E90012C0E903120649C8
:102800000160684602F0A4F806F078F82046BDE8BA
:10281000F88300008C420020BB19020801F050BF71
:10282000F8B50D4606004FF0000411D004F06CFA24
:10283000304602F023F80090046AAC4203D00562EF
:1028400080680FF077FB684602F082F806F056F8D1
:102850002046F8BDF8B50D4606004FF0000411D033
:1028600004F052FA304602F009F800904469AC4294
:1028700003D0456180680FF05DFB684602F068F8A0
:1028800006F03CF82046F8BD2DE9F8431D46DDF87A
:10289000208016460F46040015D004F035FA204675
:1028A00001F0ECFF0090C0F860804765C0E9166554
:1028B000684602F04DF820461EF024FA20460FF03C
:1028C00039FB06F01BF8BDE8F883F8B515460E464F
:1028D00007004FF0000415D004F016FA384601F056
:1028E000CDFF0090042D08D200EB8500446BB4426C
:1028F00003D0466338460FF01DFB684602F028F807
:1029000005F0FCFF2046F8BDF8B50D4606004FF077
:10291000000411D004F0F8F9304601F0AFFF009048
:10292000446CAC4203D0456430460FF003FB68466C
:1029300002F00EF805F0E2FF2046F8BDF8B50D46AE
:1029400006004FF0000411D004F0DEF9304601F02B
:1029500095FF0090846CAC4203D0856430460FF044
:10296000E9FA684601F0F4FF05F0C8FF2046F8BD1B
:10297000F8B50D4606004FF0000411D004F0C4F97C
:10298000304601F07BFF0090046DAC4203D005653A
:10299000304600F055F8684601F0DAFF05F0AEFF6A
:1029A0002046F8BDF8B50D4606004FF0000413D0E0
:1029B00004F0AAF9304601F061FF009090F86C40F5
:1029C000AC4204D080F86C5030460FF0B3FA684641
:1029D00001F0BEFF05F092FF2046F8BD2DE9F04161
:1029E000044680681D4617460E46002826D0D4E9C6
:1029F000040290420ED1521E6A4371193046FDF70F
:102A0000CBFD20692A46401E05FB00603946FDF7D4
:102A1000C3FD0EE005FB0013401C20612A46394629
:102A20001846FDF7B9FDE16819B12046BDE8F0414F
:102A30000847A068BDE8F04100F002B8BDE8F081A9
:102A400010B58AB0044601F019FF09A904AACDE91E
:102A5000002105AB089006AA07A91CF08BFA08A86C
:102A600001F076FF02A920460FF064F8BDF80800D7
:102A700007990844ADF80800BDF80A000699084413
:102A8000ADF80A00BDF80C000599401AADF80C002D
:102A9000BDF80E000499401AADF80E0002A92046B8
:102AA0000FF008FA0AB010BD70B50246002300E02E
:102AB0005B1CD55C002DFBD10124012003E004EB5D
:102AC00084056C00401CB1FBF4F50A2DF7D20025FB
:102AD000D61835540DE00A25B1FBF5F605FB1615A1
:102AE0003035D618064406F8015C0A25B1FBF5F12D
:102AF000401E0028EFD170BD10B502460020002313
:102B000000E0401C145C002CFBD103E0CC5C1454AE
:102B1000401C5B1CCC5C002CF8D1145410BD10B5CB
:102B2000012003F029F9044618F064FC204603F064
:102B300023F910BD2DE9F04105222DA135A000F0AB
:102B400035FB002608F070F8044608F079F80546D1
:102B5000A5F1C400032190FBF1F03149086031492F
:102B60000988601A00EBD0714A102F490988491D65
:102B70008A4206DC2C494988491D294A126891423B
:102B800000DA012629A003F054FD26490988671AB6
:102B900007EBD7714910884207DB21480068623093
:102BA0004100A5F12800814202DA01202349086092
:102BB000234805F0D1FB804603F00AFD401C18496C
:102BC0000968884202DA01201E490860404605F083
:102BD000C3FB304616F0A4FD01F0FAFB032001F020
:102BE000F1FC10F0A5FD01F0EBFBBDE8F081000069
:102BF00053616D706C6520666F722074686520612A
:102C000075746F6D6F7469766520696E6475737421
:102C1000727900004175746F6D6F7469766500009C
:102C2000D800002020C20208605E06086D7365634C
:102C30002F706963747572653A0A0000DC00002029
:102C400020100608E000002010B5052205A110A004
:102C500000F0ACFA00F04AFB10A000F00DFB13F0FE
:102C60006BF810BD416E696D6174656420626172BC
:102C70002067726170680A7573696E6720416C70B5
:102C8000686120426C656E64696E672E000000000A
:102C90004261722047726170680000004261726791
:102CA000726170682064656D6F00000070B507F098
:102CB000BBFF054607F0C4FF0646B5F5A07F01DB64
:102CC000F02E05DA07220CA119A000F06FFA70BDF2
:102CD000072209A116A000F069FA00F007FB002402
:102CE00006E0154850F82420314628469047641CD9
:102CF000052CF6D300BFEAE753686F77696E67204B
:102D00006269746D617073206F66206469666665C0
:102D100072656E740A666F726D61747320616E64A1
:102D200020636F6C6F7220646570746873000000BC
:102D30004269746D617073000037002010B502E0C5
:102D40000A2002F06DFB074800680128F8D0064809
:102D50000068012804D1002003490860012010BD4B
:102D60000020FCE7A8000020AC00002070B504465D
:102D700003F069FC05462E1900BF0A2002F050FB43
:102D800003F061FC0546FFF7D9FF18B100F0F0FD34
:102D9000012070BDB542F0DB0020FAE700200349B6
:102DA000086003490860034908607047A8000020D4
:102DB000A0000020A40000202DE9F04FBDB0D8A253
:102DC00007CA3AAB07C37822D8491CA8FDF726FCEE
:102DD000502108A8FDF77EFC07F026FF064607F005
:102DE0002FFF04903C273C250499A1EB4500C11717
:102DF00000EB11710C110A2C00DA0A2405221CA91F
:102E00003AA800F0D3F900F071FA6FF07F4005F0B6
:102E100074FAC74805F0A0FA06EBD67041100C22F0
:102E2000C4A0019602F006FCC54805F095FA03F02F
:102E3000CFFBC0EB4400019000EBD07005EB600AC3
:102E400052460121BFA002F0E1FB0AEB440201213E
:102E5000BDA002F0DBFB0AEB84020121BCA002F062
:102E6000D5FB04EB44000AEB40020121BAA002F0BA
:102E7000CDFB0AEBC4020121B9A002F0C7FB04EBB1
:102E800084000AEB40020121B7A002F0BFFB04EB73
:102E900044000AEB80020121B5A002F0B7FBB6485E
:102EA00005F05AFA07F006FE079008A80799FFF701
:102EB000FBFDB2A108A8FFF71FFE092007F016FED0
:102EC0008346BBF1000F0BD0AEA108A8FFF714FE9C
:102ED000594608A8FFF7E8FDABA108A8FFF70CFECC
:102EE0000498A0F119020C2108A802F08FFB00F051
:102EF0002DFA069004E100F029FA0699401A4FF4E1
:102F0000FA6190FBF1F201FB120003904910039863
:102F100090FBF1F00290029800EB4001C1EBC01170
:102F20000398A0EBC100039002F066FF0398B0F590
:102F3000FA7F00DDE4E00398C0EB00204FF4FA7163
:102F400090FBF1F00299C1EB0121484005900598F2
:102F500000EB002101EB00486FF07F40A0EB080977
:102F6000FF20CDE900086019431EF21B29463846B0
:102F700002F050FDFF20CDE9000905EB4400431E9F
:102F8000F21B6119384602F045FD4FF47F40CDE950
:102F9000000804EB44002844431EF21B05EB4401E7
:102FA000384602F037FD4FF47F40CDE9000905EBCC
:102FB0008400431EF21B04EB44004119384602F022
:102FC00029FD4FF47F00CDE9000804EB840028447C
:102FD000431EF21B05EB8401384602F01BFD4FF443
:102FE0007F00CDE9000904EB440005EB4000431EDF
:102FF000F21B04EB84004119384602F00BFD6448D3
:10300000CDE90008C4EBC4002844431EF21B04EBC6
:10301000440005EB4001384602F0FCFC5C48CDE979
:10302000000905EBC400431EF21BC4EBC4004119A8
:10303000384602F0EFFC4FF6FF70CDE9000804EBD4
:10304000C4002844431EF21B05EBC401384602F0BD
:10305000E1FC4FF6FF70CDE9000904EB840005EBBD
:103060004000431EF21B04EBC4004119384602F035
:10307000D1FC4848CDE9000804EB440000EBC40053
:103080002844431EF21B04EB840005EB4001384644
:1030900002F0C0FC3F48CDE9000904EB440005EB19
:1030A0008000431EF21B04EB440000EBC4004119F6
:1030B000384602F0AFFC4FF0FF10CDE9000804EBFA
:1030C000840000EBC4002844431EF21B04EB4400C0
:1030D00005EB8001384602F09DFC4FF0FF10CDE972
:1030E0000009C4EBC40005EB4000431EF21B04EBD7
:1030F000840000EBC4004119384602F08BFC00BF8D
:1031000000F024F90699401A41F27071884204DAFD
:10311000FFF714FE00283FF4EEAE3DB0BDE8F08F9F
:10312000436F6C6F7220626172000000A0C90608D4
:1031300020100608436F6C6F72206261727300008A
:10314000BC22060852656400477265656E00000087
:10315000426C756500000000477265790000000050
:1031600059656C6C6F7700004379616E0000000058
:103170004D6167656E746100B472060820627070FC
:10318000000000002C20000020636F6C6F72730041
:103190008080800000FFFF00034901600C21416036
:1031A0000D210181704700001437002070B50646DC
:1031B0000D46144626B11DB1294630461DF050FA81
:1031C00004F0010010B100F006FC01E000F006F987
:1031D00004F0020020B10B4800680FF054FA03E03D
:1031E000084800680EF0E2FD04F0040020B1064833
:1031F00000680FF048FA03E0034800680EF0D6FDBF
:1032000070BD00008C000020880000202DE9F041F6
:1032100004464FF40471174800680EF027FC8046FE
:10322000642C01DD21F0B6F80021404609F019FEBA
:1032300022460021404609F0E1FD03F004FA06466B
:1032400000BF00F083F8871B642C03DD394640463D
:1032500009F007FE052002F0E3F8FFF76FFD0546D1
:10326000A74201D2002DECD0642C01DD1CF0E8FB5C
:10327000BDE8F081880000207CB50546194805F0BE
:103280006BF8284603F0D5F9064607F0CDFC044656
:10329000A01B00EBD0714910491F134A1288521D20
:1032A000914206DA10480088401D00B2ADF80000D7
:1032B00002E00020ADF800000020ADF80200601E22
:1032C00000B2ADF8040008484088093000B2ADF8FB
:1032D0000600022005F0BAF80E226946284602F0E0
:1032E000C3F97CBD20100608605E060810B50248D0
:1032F0000068804710BD00009800002010B505222E
:1033000003A10AA0FFF752FF19F0F2FC10BD000064
:10331000466164696E67206265747765656E0A74DC
:10332000776F2073637265656E7300004661646930
:103330006E670000014604480089084008B101207A
:1033400070470020FCE70000CC8A002010B506483A
:10335000006810B10548006810BD03F074F9044915
:103360000968401AF8E70000A8000020A400002027
:10337000A0000020014840880A307047605E0608BF
:1033800010B5072204A111A0FFF710FF1CF0AEF941
:1033900000F0EEFA10BD00004F7074696D697A6537
:1033A000642064726177696E6720726F7574696EEC
:1033B000650A666F722064726177696E6720677252
:1033C000617068206461746100000000447261777C
:1033D000696E6720612067726170680010B508200F
:1033E000FFF7A8FF08B101F081FD10BD2DE9F04302
:1033F0008FB0182109A8FDF76DF91C2102A8FDF76F
:1034000069F907F011FC054607F01AFC8046B5F58E
:10341000A07F0AD0B8F1F00F07D00522644965A05B
:10342000FFF7C4FE0FB0BDE8F08307F0F1FBB0F585
:10343000F07F03DB04F0F2FC012805DD0522604982
:103440005CA0FFF7B3FEEDE700225EA159A0FFF7F5
:10345000ADFE02F0D1FC072209A902A81BF032FB45
:10346000002876D16FF07F4004F047FF022004F07F
:10347000EDFF634804F070FF4FF40000009031232B
:1034800040F23F1200210190084602F0FFFA6FF06F
:103490007F404FF40001312340F23F12CDE900108C
:1034A0001E21002002F0F2FA4FF400006FF07F417D
:1034B000EF2340F23F12CDE90010DC21002002F0A2
:1034C000E5FA4FF40000009040F2211340F23F1261
:1034D000F0210190002002F0D9FA6FF07F404FF404
:1034E000000140F2211340F23F12CDE900104FF4E9
:1034F0008771002002F0CAFA4FF400006FF07F419C
:1035000040F2DF1340F23F12CDE900104FF4E671B4
:10351000002002F0BBFAA94605EBD9704110062243
:1035200038A002F087F805EBD9704110F62235A0DB
:1035300002F080F8FFF70AFF44F2682147180026DE
:1035400000BF3346072209A902A818F0F7F808B10E
:103550000FE00FE04FF4FA6012F0B7FB00B108E0A3
:10356000701C0646072800D10026FFF7EFFEB84280
:10357000E7DB00BF002405E009A951F8240003F0AF
:1035800031FF641C062CF7D3002405E002A951F892
:10359000240003F027FF641C072CF7D30021084602
:1035A00004F016FF002004F09CFE00BF3AE7000084
:1035B00030CA0608496D61676520466C6F77000068
:1035C00074CA060853686F777320736F6D65206641
:1035D0006C6F6174696E6720696D616765730A73EA
:1035E000696D696C617220746F207468652027436F
:1035F0006F766572466C6F7727206C6F6F6B00007B
:1036000020100608656D57696E202D20496D616791
:1036100065466C6F772044656D6F0000F0B589B02A
:103620002022394901A8FCF7F9FF07F0FDFA054609
:1036300007F006FB04466E08FFF758FE022004F070
:1036400005FF6FF07F4004F058FE304804F084FE20
:10365000C4F3191231462EA001F0ECFF2E4804F0FD
:103660007BFE04EB440000EBC400820931462BA032
:1036700001F0E0FF374804F040FE16206043820965
:10368000314635A001F0D6FF3D4804F065FE162016
:103690006043122101EB901231463AA001F0CAFFBB
:1036A0006FF07F4004F029FE1B4804F055FE02F045
:1036B000CDFF0746394601A8FCF71DFFC4EB4410B7
:1036C0008209314601A801F0B5FF26206043820936
:1036D00034480088281A4108324802F07FF86FF019
:1036E0007F4004F00AFE094804F036FEC4EBC40033
:1036F000C0F3D90231462CA001F09CFF41F2883082
:10370000FFF784FD09B0F0BDA0DD05082010060814
:10371000656D57696E000000BC220608556E69761B
:10372000657273616C206772617068696320736F82
:103730006674776172650A666F7220656D62656492
:10374000646564206170706C69636174696F6E7325
:1037500000000000FF882200416E79204350552070
:103760002D20416E7920446973706C6179202D2081
:10377000416E79204170706C69636174696F6E008D
:103780009C790608436F6D70696C656420417567AC
:1037900020333120323031362031393A34353A3124
:1037A00031000000AC5006087777772E73656767A5
:1037B00065722E636F6D000010B5072204A10FA083
:1037C000FFF7F4FCFFF792FD12F062FB10BD000062
:1037D00053686F777320736F6D65206665617475CC
:1037E000726573206F660A746865204C495354569D
:1037F0004557207769646765740000004C697374ED
:103800007669657720776964676574008CB02B49A9
:103810002B4804F04FF80EF01DF9064629490EF02A
:1038200076FDFDF731FB002101A8FDF723FF002005
:103830000690002101A8FDF74DFF012101A8FDF729
:1038400019FF00200690012101A8FDF743FF1E4843
:10385000FDF72CFF1D4809F0AFFA1D48FDF7F4FAFB
:103860001C4809F06FFE1C4809F05EFF1B4806F07B
:1038700085FC022004F0EAFD1948FFF78DFC07F0F3
:1038800019F90546102D11DB0420FFF753FD68B12F
:1038900000F0D4FF0446B4F5001F03D911481249C3
:1038A000086006E011481049086002E010480E491F
:1038B000086001E01DF044F9FCE7000094000020DE
:1038C00031570208C556020875D8010835CD0008E1
:1038D000110C000885D30008FDD5000875A000086C
:1038E000CC8A0020D997010898000020E9960108A9
:1038F000ED980108F0B501F07F4CBCF17F4F35D059
:1039000000F0FF0C0CFB02F400F47F4C0CFB02F502
:1039100000F47F0C0CFB02F64FEA106C0CFB02F774
:10392000C2F1FF0301F0FF0C0CFB034401F47F4CD8
:103930000CFB035501F47F0C0CFB03664FEA116C82
:103940000CFB0377C4F307244FF47F4C0CEA1525D6
:103950004FF47F0C0CEA16264FF07F4C0CEA074719
:1039600044EA050C4CEA060C4CEA0700F0BD0000E6
:1039700010B505480068401C03490860FFF70EFABF
:1039800021F07AF810BD00009000002070B50446C8
:10399000084800680EF029FB50B140F2611105485B
:1039A00000680EF063F80546214628460AF055F8EF
:1039B00070BD00008C00002010B502460C460221AC
:1039C000601EC3B202E04900581EC3B2002BFADCED
:1039D00092FBF1F010BD10B50820FFF7ABFC08B169
:1039E00001F020FB10BD00002DE9F04F99B0282117
:1039F00008A8FCF76FFE00226DA179A0FFF7D6FBA7
:103A000007F012F9044607F01BF9054607F000F924
:103A10008046A8450DDD0020ADF85000ADF85200FD
:103A200020B2ADF8540028B2ADF8560014A804F046
:103A300058FC002607E06D4951F8260001F082FB92
:103A40004DF82600761C082EF5DBFFF77FFC0746B5
:103A500000266BE006F007015DF8210004F058FC39
:103A6000FCF72AFC90FBF4F104FB1100A14604EBE7
:103A7000D971A0EB610000B2ADF84800FCF71CFC66
:103A800090FBF5F105FB1100A94605EBD971A0EB00
:103A9000610000B2ADF84A00FCF70EFC90FBF4F1B7
:103AA00004FB1101BDF848001430084400B2ADF821
:103AB0004C00FCF701FC90FBF5F105FB1101BDF892
:103AC0004A001430084400B2ADF84E00BDF94E3043
:103AD000BDF94C20BDF94A10BDF9480002F0AEF91D
:103AE000BDF94C00A04203DB601E00B2ADF84C00F3
:103AF000BDF94E00A84203DB681E00B2ADF84E00CF
:103B0000BDF94800002802DA0020ADF84800BDF9F0
:103B10004E00002802DA0020ADF84E0016A804F08E
:103B2000CFF99DF8600000B10BE0761CFFF70EFCAA
:103B3000C01B41F28831884203DAFFF7FFF8002802
:103B400088D000BFFFF714FF1BF07BFA83460020EC
:103B500004F0C7FB26A108A8FEF7CEFF594608A827
:103B6000FEF7A2FFFFF7C2FB6FF07F4004F0C5FB3A
:103B7000022004F06BFC224804F0EEFB02F036FD5C
:103B8000A5EB0009A24609EBD970421004EBDA70EC
:103B9000411008A801F04EFD052200210846FFF75C
:103BA00005FB4FF47A60FFF731FB19B0BDE8F08FE9
:103BB0004D756C7469206C6179657220636C6970F5
:103BC00070696E670A486967686C79206F707469FC
:103BD0006D697A65642064726976657273000000AD
:103BE000486967682073706565640000745E060844
:103BF000506978656C732F7365633A20000000008C
:103C00002010060870B507F01BF8044607F000F80E
:103C10000546B5EB440F05DA07220A490AA0FFF76B
:103C2000C5FA70BD07220CA107A0FFF7BFFAFFF786
:103C30005DFB12F071F90021084604F0C9FB00BFDA
:103C4000EFE700003CD306085669727475616C207A
:103C500053637265656E000044656D6F6E737472B8
:103C60006174657320686F7720746F207573650ABF
:103C70007669727475616C2073637265656E73002A
:103C800010B504462046FFF7C1FAFFF771FE10BDDC
:103C90002DE9F04FDFF828B191B04FF0FF35DBF898
:103CA0000030B3F922100691DE69B3F924A0F4695B
:103CB000A189814206D8E289824203D3471AD4F807
:103CC000008012E0D4E90181002970D00A88824284
:103CD0006DD84D8885426AD3801A82B2486800EB5D
:103CE0008200B0F90070B0F90250781C5FD0307ECD
:103CF000A27C014600FB02F9207CCDE90710B3F954
:103D00002A60304607F096FCC0B20E90DBF8001037
:103D100007FB0980A37C8A6B0127CDE90402CDE96A
:103D20000273C869089AC17E807ECDE90001DDE991
:103D30000603514606F00AFC681C18D046F0020043
:103D400007F078FCDBF80000A37C05FB0981826B9F
:103D5000CDE90273CDE90412C069089AC17E807E64
:103D6000CDE90001DDE90603514606F0EFFBDBF883
:103D700000005D46C069417E007E814214D9022E5A
:103D800012D086F0040007F055FC2868C069027E56
:103D9000C37E857E02FB03A1437E089A06985344A6
:103DA00002FB050206F05AFE0E9807F043FCDBF812
:103DB0000000627C418C1144418411B0BDE8F08F59
:103DC0001040002004480068C069C06909B1027C45
:103DD0000A60407C704700001040002002200880EC
:103DE0007047C06982898A4202D8C2898A4210D249
:103DF000806880B102888A420DD843888B420AD3FA
:103E0000406800EB8100A0EB8200B0F900000028C0
:103E100001DB01207047002070470000F0B52C4DF9
:103E2000044687B028682146B0F92A60C069C06995
:103E300000F036FA002848D041680088201A00EBCC
:103E4000400001EB80042078C01C8708304607F052
:103E5000F1FB06461F48D0F800C0BCF1000F1AD095
:103E60000021A068CDE904010222012001A90090EF
:103E700081E88500286894F90320DCF80070B0F927
:103E80002410B0F92200114494F902206378104400
:103E90002278B84711E0A068CDE90070286894F94D
:103EA00003206378B0F92410B0F92200114494F98A
:103EB00002201044227800F08DFB304607F0BAFB58
:103EC00028682279418C1144418407B0F0BD00007C
:103ED000104000204C400020F0B5254C054687B02E
:103EE00020682946B0F92A60C069C06900F00FFA5D
:103EF00000283AD041680088281A01EBC0053046F6
:103F0000AF7807F097FB06461A48D0F800C0BCF11E
:103F1000000F15D000216868CDE9040104220120BA
:103F200001A9009081E885002068DCF800702A78FB
:103F3000C1690B7EB0F92410B0F92200B8470CE03B
:103F40006868CDE9007020682A78C1690B7EB0F9F5
:103F50002410B0F9220000F04FFB304607F06AFB56
:103F600020686A78418C1144418407B0F0BD00009C
:103F7000104000204C400020F0B52C4D044687B086
:103F800028682146B0F92A60C069C06900F088F944
:103F9000002848D041680088201A00EB400001EB5F
:103FA00080042078401C4708304607F043FB064653
:103FB0001F48D0F800C0BCF1000F1AD00021A06843
:103FC000CDE904010422012001A9009081E88500C7
:103FD000286894F90320DCF80070B0F92410B0F9D7
:103FE0002200114494F90220637810442278B847E3
:103FF00011E0A068CDE90070286894F90320637887
:10400000B0F92410B0F92200114494F902201044B0
:10401000227800F0F1FA304607F00CFB286822798C
:10402000418C1144418407B0F0BD000010400020D5
:104030004C40002070B505460B480C4629460068E8
:10404000C069C06900F063F900280BD0416800889E
:104050002A1A012000EBC200002C085C02D011F8E3
:104060003210216070BD0000104000201120088037
:10407000704710B5C06900F04AF9002800D001204F
:1040800010BD00002DE9F0432F4C034687B0206897
:104090001946B0F92A80C069C06900F038F90028D3
:1040A0004ED041680088181A01EBC0054046AE7832
:1040B00007F0C0FA814620686A680123816BCDE968
:1040C0000236CDE90421C169CB7E8A7ECDE9002389
:1040D0000B7EB0F924102A78B0F9220006F036FAE7
:1040E0002068C069477E067EB7421DD9C07E47431F
:1040F0004643B8F1020F17D002F053FA804602F09F
:1041000019FA04F0FAF821682A78CB69B1F922008B
:10411000B1F92410DB7E02FB0302CB19314406F017
:104120009DFC404604F0E9F8484607F083FA206811
:104130006A78C369B0F922109B7E02FB03114184A7
:1041400007B0BDE8F08300001040002030B50F4CF0
:1041500005460B4620682946C069C06900F0A0F8F2
:10416000002812D0416800882468281A00EB400219
:104170000420E46900EB8200085CA47E6043002B0D
:1041800003D011F822106143196030BD10400020A7
:1041900003460C4810B500680C461946C069C06952
:1041A00000F07EF858B141680088181A00EB400012
:1041B00001EB800007C884E80700002010BD012043
:1041C00010BD00001040002001200880704700B59D
:1041D000C06900F065F8002800D0012000BD000093
:1041E0002DE9F3411B4E0F46002530682C46C0696F
:1041F000417EC07E01FB00F81CE0684604F056FAE0
:10420000054630682946C069C06900F049F888B1A0
:1042100041680088281A00EB400001EB800090F90B
:104220000210007908443168C969897E4843002832
:1042300000DD04447F1EE0D51DB1284605F0BAFA22
:104240000444414620460FF00DFE0349012008704A
:10425000BDE8FC81104000208C4000202DE9F34196
:104260000D4D0E4F0E462868B0F92A40A0070AD11E
:104270007A680098904706E0684604F017FA2968C3
:10428000C96909688847761EF6D500203870286805
:104290004485BDE8FC810000104000208C400020D7
:1042A00006E002888A4202D842888A4202D28068A6
:1042B0000028F6D17047000030B50E4C05460B467D
:1042C00020682946C069C06900F021F8002810D094
:1042D0004168008824682A1A0120E46900EBC200C2
:1042E000085CA47E6043002B03D011F832106143B8
:1042F000196030BD1040002001200880704700B5D3
:10430000C06900F004F8002800D0012000BD06E0DC
:1043100002888A4202D842888A4202D280680028F3
:10432000F6D1704770B50025124C19E0206912498A
:10433000C5EB051600EBC60070220968001DFCF7EE
:104340006DF92069002140F8361000EBC60000F13D
:104350000C018161011D0A1DC0E90F126D1C416431
:10436000A0688542E2DB02F0CFFCBDE8704004F0BB
:10437000C5BA0000044500201040002070B50F4968
:104380000D480860084605F05FFB0C4C143CA06823
:10439000C0EB0010C500284600F0D8F92A460021DD
:1043A000206105F03CFC4FF0FF30206004F0E8FA9B
:1043B000BDE870401BF04EB8A11602081845002059
:1043C00002490020096881F8690070471040002008
:1043D00002490120096881F86900704710400020F7
:1043E00010B519F0EDF90448016A04480068416607
:1043F00000F10801416110BDAC3F002010400020D9
:104400007CB514460D46064602F07EFC0EF092FA8C
:1044100006440EF09DFA05441648006890F86910AD
:1044200021B990F868104E434D434C43301B00F0C7
:104430005DF8ADF80000301900F058F8ADF8040050
:10444000281B00F053F8ADF80200281900F04EF8D0
:10445000ADF8060068460EF0B5FA06E02246294699
:104460003046FDF755FE0EF045FA0028F6D104F06F
:1044700045FA7CBD104000202DE9FC471C4615463E
:104480008846814602F040FC0EF054FA05440EF0D6
:104490005FFA044400200EF095FAF8B1114E124F65
:1044A00012213068407C57F820000190C068426AB1
:1044B00001A890475FEA000C06D02B4642464946C9
:1044C00000940198E04705E023462A4641464846C5
:1044D00018F032FD0EF00EFA0028E1D104F00EFAC9
:1044E000BDE8FC87104000202840002004490968EE
:1044F00091F8681009B190FBF1F000B2704700002C
:10450000104000202DE9F041224C05460E4620685F
:10451000002788B920480068E06110B906F075FBF3
:10452000E06100F013F9206080B31A491B48243180
:104530000860084605F088FA19480068854200DAE4
:104540000546E169731B4A1E2046934201DD6E1841
:10455000761EAE4201DA2E460127124C2268516EB9
:104560004B68836301620B490F4B34310B6051661A
:1045700002C880E862000FF061FC0FF06BFA05489A
:1045800021682C3048613846BDE8F081FFE70127FB
:10459000D2E70000AC3F0020404000206515020833
:1045A000444000201040002025A80108044A126859
:1045B00092F8682090FBF2F091FBF2F1FFF7A2BFB6
:1045C000104000200249096881F868000FF042BAE3
:1045D000104000207CB5074EDDE906543668367C75
:1045E000CDE90054B60702D415F034FA7CBD15F0BD
:1045F00083FA7CBD104000207CB5084EDDE90654EE
:104600003668367CCDE90054B60702D415F0D6FAE8
:104610007CBD034C2468A0477CBD000010400020F6
:104620007C3F0020F8B50C0005460FD002F06CFB73
:10463000204600F017F8060010D000F01FF92246BF
:1046400000902DB12946FBF762FF04E00020F8BD81
:10465000002105F0E4FA684600F07AF904F04EF91A
:104660003046F8BD10B5040009D002F04DFB2046DD
:104670000FF000F8044604F041F9204610BD002078
:1046800010BD38B5054602F03FFB2846FFF7EAFFAC
:10469000040009D000F0F2F82A460021009005F04D
:1046A000BEFA684600F054F904F028F9204638BDF7
:1046B000024A106021F0030050607047E48B002034
:1046C00010B5040016D002F01FFB0B48406B10F829
:1046D000341059B1022909D2042101EBC401415817
:1046E00048680EF0B1FE20461EF006FCBDE8104002
:1046F00004F004B910BD0000248B0020002805D070
:10470000034AD16B016001B14860D063704700007B
:10471000248B002010B5044602F0F6FA2068FFF75B
:10472000CFFF00202060BDE8104004F0E7B8000093
:1047300070B50D460646002405E000BF06EB840078
:10474000FFF7E8FF641CAC42F8DB70BD2DE9F041D7
:1047500004461BF0E9FE2848E41C24F00305016C24
:104760002D1DA94200D90D46C46B13E054F8042C4A
:10477000AA420ED184B1216809B162684A606168B9
:1047800009B122680A60C26BA24231D12168C163BB
:104790002EE02468002CE9D18046816BC0680F1898
:1047A00057F8040C3E1A306838B100201EF058FD4E
:1047B00057F8040C3E1A3068D0B97068A84217DB6D
:1047C0003044441B3046241D1EF002FDD8F80C1066
:1047D000491BC8F80C10D8F814102944C8F8141054
:1047E0007068401B02D031460EF02EFE44F8045C87
:1047F0002046BDE8F0810000248B002010B5002485
:104800001BF092FE0C490F2001EBC002526C1AB152
:1048100001EBC000406C08E0401EF5D508E041689F
:10482000A14200D90C46806810B180680028F6D1FA
:10483000A4F10C0010BD0000248B00200348006888
:104840000C38002800DC002070470000248B00207A
:10485000002138B10449042202EBC000496B08581A
:1048600041680C3908467047248B00200248816952
:10487000491C816170470000248B00200549CA69EA
:10488000521CCA61496B01EBC0010A78521C0A70C4
:1048900000F076B8248B00207CB506460C4608460E
:1048A000FFF7E0FE050020D0FEB13046FFF7D0FF55
:1048B000A04200DA044602F027FA2846FFF7DEFF9E
:1048C00000903046FFF7DAFF01460190224600983B
:1048D000FBF71DFE684600F03BF801A800F038F831
:1048E0003046FFF7EDFE04F009F828467CBD0000D5
:1048F00010B502F009FAFFF781FF64220849B0F50C
:10490000800F04D990FBF2F4086A444303E0096A7B
:104910004143B1FBF2F403F0F1FF204610BD00006B
:10492000248B00200549102805D94A68B0EB520FA6
:1049300002D3500800E0102088607047E48B00200C
:1049400002488169491E816170470000248B002064
:104950000A4902684B6B52F8082C03EBC202137829
:10496000022B03D3CB690BB15B1ECB611178491EBF
:10497000117000210160084670470000248B002060
:10498000002806D00349042202EBC000496B0858F6
:1049900008307047248B00202DE9FC414FF00006C1
:1049A0000B465FEA000834462BD032B11146184658
:1049B000FFF738FE060000D101244046FFF75EFFF6
:1049C0000090078845686846FFF7C2FFCCB9B90078
:1049D0002846091DFFF760FF050015D0FFF74EFFC1
:1049E000019040F8276001A8FFF7B2FF4046FFF7AB
:1049F00045FF009045600188491C01806846FFF72B
:104A0000A7FF2046BDE8FC813046FFF759FE012490
:104A1000F7E70820FFF735BE7CB5050023D0FFF788
:104A20002DFF00904068C0B1FFF728FF00240190DF
:104A300005E0019800EB8400FFF76CFE641C009811
:104A40000088A042F5DC01A8FFF782FF0098001D56
:104A5000FFF760FE0099002008806846FFF778FFA6
:104A60002846FFF72DFE7CBD7CB50C46FFF706FF00
:104A700000900188A14220D94568F5B102F044F9BF
:104A80002846FFF7FBFE019000EB8400FFF742FE93
:104A900000990888401E80B20880401E019905E0F8
:104AA00001EB8402526841F82420641C8442F7DD43
:104AB00001A8FFF74DFF03F021FF6846FFF748FF0D
:104AC0007CBD38B5002430B1FFF7D8FE00900488D3
:104AD0006846FFF73DFF204638BD38B50D46002437
:104AE00048B1FFF7CBFE2946009000F0B4F8044629
:104AF0006846FFF72DFF204638BD38B50D46002427
:104B000048B1FFF7BBFE2946009000F0B6F8044616
:104B10006846FFF71DFF204638BD2DE9FE430C46D1
:104B20005FEA00083DD0FFF7A9FE009006884768BD
:104B30006846FFF70DFFB44233D2B000001DFFF707
:104B4000A0FD05002DD0FFF799FE01903846FFF734
:104B500095FE01460290A2000198FBF75FFD301B15
:104B60008200029800EB8401019800EB8400001D94
:104B7000FBF754FD01A8FFF7EBFE02A8FFF7E8FEE4
:104B80003846FFF79DFD4046FFF778FE00904560F0
:104B90000188491C01806846FFF7DAFE0120BDE864
:104BA000FE830020FBE72DE9F04115460E4607463F
:104BB0000024FFF7B2FF30B12B46002231463846C1
:104BC00000F004F804462046BDE8F0812DE9FE43DC
:104BD000984691460D460024D0B3FFF74FFE019052
:104BE0000788466801A8FFF7B3FEBD4230D27EB306
:104BF0003046FFF743FE009050F825406846FFF727
:104C0000A7FE24B12046FFF723FE404511D04046C1
:104C1000FFF737FD04000CD03046FFF72FFE00EB06
:104C2000850500902846FFF775FD68462C60FFF764
:104C30008FFEB9F1000F0BD054B12046FFF71EFED6
:104C4000424649460290FBF762FC02A8FFF780FE4D
:104C50002046BDE8FE8338B50D4601880024A942F0
:104C600009D9406838B1FFF709FE009050F8254097
:104C70006846FFF76DFE204638BD10B50024FFF7EB
:104C8000EAFF10B1FFF7FAFD0446204610BD70B5EB
:104C90000C46054602F06EF8C1B223462846BDE830
:104CA00070400022AFF30080F0B52D271C68B0F1F2
:104CB000004F08D0002600280DDA651C1D60277003
:104CC0004042012408E0651C01261D606FF0004091
:104CD0002770491E01E00024091BC9B22AB3491EEE
:104CE000C9B222E00C46491EC9B2944205D1124C09
:104CF00027781C68651C1D602770104C54F82150E3
:104D000090FBF5F4E4B20A2C11D804FB150011B99C
:104D10000EB1641CE4B20A2C02D10124491CC9B2B0
:104D20001D686F1C30341F602C700029DAD119689F
:104D300000200870F0BD00000440002038BD0608C7
:104D400010B5002807DD0A682B24531C0B60147073
:104D5000096800220A7010BD08B513460A46009083
:104D60006946024800F004F808BD0000854D0008BF
:104D70003EB51446029100906A461946204611F04D
:104D800001FB3EBD006818440860104670472DE9DD
:104D9000F8431D46DDE908461746884601236A4662
:104DA000362100F056F898BB684604F024FE814690
:104DB000009810300090684604F027FEC8F8000004
:104DC000684604F022FE38600098801C0090684617
:104DD00004F011FE2880684604F017FE3060009849
:104DE0000C300090684604F010FE2A884FF4807161
:104DF000082A13D005DC5AB1012A0AD0042A1ED190
:104E000009E0102A1ED0182A1CD0202A17D119E038
:104E100015E0022200E01022226000E02160A0B133
:104E2000206088420BDCA9F59A41423907D13068ED
:104E300068B101280BD0022809D0032807D001202F
:104E4000BDE8F88300202060EDE72068E9E7002056
:104E5000F6E72DE9F04117460D4604460BB1002058
:104E60006060D4E901300A4626683946B047A84256
:104E700002D00120BDE8F081606828446060002015
:104E8000F8E70000F8B50D46074600240E4E16E080
:104E900000236A4604213846FFF7DBFF08B10120F2
:104EA000F8BD0098027841788378100440EA012028
:104EB000184305F069FA316841F82400641CAC42DB
:104EC000E6DB0020F8BD00003845002010B50446A0
:104ED00001F01AFF044904EB840001EB80004479DF
:104EE00003F00CFD204610BDB48C00200248006881
:104EF000407C00F003B800001040002070B505466B
:104F000001F002FF124805EB850100EB8104002649
:104F10006671236953B150F82100E26881684068E6
:104F2000521AA168091A184603F0D2F8284601F06F
:104F300045FB18B1002103F02FFA04E0207918B1E5
:104F4000206903F0A8F82671BDE8704003F0D6BCD4
:104F5000B48C00202DE9FC5F8946044601F0D4FEA4
:104F6000484601F02BFB2C4E09EB8907824656F888
:104F70002700019029484FF00108016841B92749ED
:104F8000C0F80080091D26480860084604F05CFD52
:104F9000214A09EB89015FEA0A0002EB81051BD077
:104FA00003F040F983464FF07F4003F08FF900F0A3
:104FB0007DF800221146206800F010FC206842882D
:104FC0000188504603F0D8F946F8274085F8058057
:104FD000584603F027F917E046F8274085F8058082
:104FE0002869464618B103F031F80020286174B1F1
:104FF0000096E868A1684B46421AA8686168411AA1
:10500000206803F099F8286148461FF0E3F803F0A0
:1050100075FC0198BDE8FC9FB48C00205440002032
:10502000D915020802480068407C00F003B800006F
:105030001040002010B5044601F066FE0A4804EB5B
:10504000840100EB810301225A7150F8210030B134
:1050500020461FF0BFF8BDE8104003F04FBC2146CA
:105060000248FFF777FFF6E7B48C002074BD06080E
:1050700010B5C2B2CBB2D21A00D5524293B25B4342
:10508000C0F30722C1F30724121B00D55242000CC3
:1050900092B2A0EB114002FB023200B2002801DA0A
:1050A000404200B280B200FB002010BD10B50021CC
:1050B000084601F00DFB43F6FF725042BDE8104078
:1050C00013460146AFF300802DE9FC411C4615460E
:1050D0000E46074601F018FE042006F0ABFA8046A3
:1050E0001248C068C16C006D0F4406440D4404446E
:1050F000ADF80070ADF80450ADF80260ADF80640B0
:1051000068460DF05FFC07E023462A4631463846E4
:1051100005F0A4FC0DF0EEFB0028F5D1404606F0AA
:1051200089FA03F0EBFBBDE8FC810000044000209D
:10513000B0F90630B0F90420B0F90210B0F900005F
:10514000FFF7C2BF10B5044601F0DEFD204605F0B2
:105150001BF9044603F0D2FB204610BD2DE9F843AD
:105160001C00DDE9089816460F46054602D10CF0F2
:1051700071FC044600962E6843464A46214628465E
:10518000B047060039D00CF05AFC8146698A304697
:105190000CF0DAF830460DF076FA48460DF073FA66
:1051A0004FF000080CE000BFCDF8008055F81CCF90
:1051B00000231A4649462846E04700B30DF063FA3B
:1051C0007F1E002FF0DC1D2148460DF080F8601C8A
:1051D00012D001F099FD0CF077FC30B1FFF7D0FB55
:1051E0008469B44201D02000F8D1B44202D03046E4
:1051F0000DF07EF903F082FB3046BDE8F8833046BF
:105200000CF014FB0020F8E72DE9F0411C4616468F
:105210000D460746022B02DB0020BDE8F0811C2072
:10522000FFF794FA0028F8D00DB105610AE0094AA9
:1052300052F8241009B905E011460A68002AFBD18A
:105240000969016184618682002101604160C0E9D1
:105250000217E2E72840002070B51D46FFF7D4FF93
:10526000040009D000F00EF8E068006820B9034897
:10527000006800EB85008465204670BD104000206A
:10528000FFF73CBA70B590B38269022A30DA1E4C3F
:1052900054F8221019B944F8220032E019464B683C
:1052A000002BFBD106E0CB68C5681B682D68AB42BC
:1052B00003DD09680029F6D11AE0C1B1CB68C668E0
:1052C0001B683668B3420CD1838A012B05D008E0F5
:1052D0001946DB681B68AB4203DB0B68002BF7D178
:1052E00029B14B6833B118604A68426004E0FFE7B7
:1052F000012070BD44F822004860884200D100219E
:105300000160002070BD00002840002010B503E0BF
:105310000468FFF7B7FF20460028F9D110BD1FF041
:1053200093BB00002DE9F0410026DFF834800D4FDB
:10533000354600BF58F8254009E0E0680068385C51
:1053400020B120461FF080FB266026462468002CF2
:10535000F3D16D1C022DEDDB3046BDE8F08100007D
:105360002840002018600608022801DB0020704752
:10537000054A52F8200004E0C26812688A42F6D05A
:1053800000680028F8D1704728400020022801DB7F
:1053900000207047054951F8200004E0C168096801
:1053A0000029F6D000680028F8D170472840002076
:1053B0002DE9F8431D461646884604000CD0FFF739
:1053C0005DFA0090006807686846FFF7C1FA2B464F
:1053D000324641462046B847BDE8F88338B5040058
:1053E0004FF000000AD02046FFF748FA009000680E
:1053F00045686846FFF7ACFA2046A84738BD38B57F
:1054000004004FF000000AD02046FFF737FA009062
:10541000006885686846FFF79BFA2046A84738BDB4
:105420002DE9F041044603F0A6FA06191EE000BF7C
:1054300000F0E2FC052F00DD052701F065FC1148B6
:105440000568FFF713FA2C0017D000BF03F056FAD7
:10545000641EFBD1384603F083FA1DB101F054FC01
:105460006D1EFBD1FFF76CFA03F048FA03F083FAE4
:10547000371A002FDCDCBDE8F081384603F070FA03
:10548000F0E70000104500207FB51E4614460D468B
:10549000CDF80CD003AB00223146FFF705FC2246C5
:1054A0002946684600F0B2F87FBD1FB503A9CDF8C4
:1054B0000CD0FFF7ECFB684600F024F81FBD1FB5C9
:1054C00003ABCDF80CD0FFF7EFFB684600F01AF8FD
:1054D0001FBD002210F016BE7FB50C461546CDF854
:1054E0000CD003A9FFF72CFC002801DD641EE4B2F8
:1054F00003AB2A462146FFF7D7FB684600F002F8C7
:105500007FBD00002DE9FC4706005FD001F0FCFBE9
:1055100001F05EF83C4C81462068B0F9228001F031
:10552000A1F8216807468A8CD01B888441E000BF1F
:1055300047F6FF71304604F005F9824601463046D1
:1055400004F0D6F82168054691F82C0000F003001D
:10555000012841D002283BD000204A8C101A4884F0
:10556000ADF800006A1E1044ADF80400888CADF858
:105570000200A9F101010844ADF806006A4651464F
:10558000304603F0C1FB2168BDF802008884514613
:10559000304603F0A1F8064430780A281ED00D28C2
:1055A0001CD0BDF80000216828444884307818B128
:1055B000761C30780028BBD12068818C39448184E6
:1055C000818D21F00301818503F098F9BDE8FC8706
:1055D00005EBD5704010C0E72846BEE7206890F87C
:1055E0002C1001F0030101290BD0022909D0018CF4
:1055F000418431780A29D9D1828C02EB0901818456
:10560000D4E7A0F82280F4E71040002070B51446DB
:105610000D46064601F078FB054800684584848401
:105620003046FFF76FFFBDE8704003F067B9000038
:10563000104000202DE9F04107460A4815460E4665
:105640000068B0F92C0040F0020002F0EFFE0446C2
:105650002A4631463846FFF7D9FF2046BDE8F041DB
:1056600002F0E4BE1040002047F6FF73AFF3008065
:105670002DE9FC411F4690460D4606004FF0000400
:105680001AD001F041FB65B128460CF0DDFF0400A3
:1056900007D002462946684604F0C1F868460CF077
:1056A000D3FF3B4642462946304603F085FB204661
:1056B0000CF0CAFF03F022F9BDE8FC812DE9FF4F91
:1056C00087B09046894607007DD001F01DFBD9F8D0
:1056D0000040D9F8045021B228B2401A401C029070
:1056E00000F076FF064618F00C0F1ED038460A9AD6
:1056F000029903F00DF908F00C01042904D00829DF
:1057000002D00C2911D104E0291400FB1610401C12
:1057100009E02114C1EB254200FB1620401C00EBE0
:10572000D07001EB600060F31F4448460CF08CFF22
:105730005FEA000B09D00246494604A8CDE90445BA
:1057400004F06DF804A80CF07FFFA6F1010A3846BA
:105750000A9A029904F032FA03900AEB244060F3AB
:105760001F45CDE900453846039903F0C1FF18F005
:1057700003010ED001292CD002290ED1B9F9042041
:10578000B9F90010521A101A00EBD07001EB60004A
:1057900001E0B9F80000ADF800006A463846039908
:1057A00003F0B2FA38460A9A029904F0FDF9074468
:1057B00006EB244060F31F4438780028C7D15846D0
:1057C0000CF042FF00E001E003F098F80BB0BDE8F8
:1057D000F08FB9F80410081A401CDCE77CB51446B9
:1057E0000D46064601F090FA11480068C16C006D44
:1057F0000D4404443188681E0844ADF80400ADF837
:1058000000507188601E0844ADF80600ADF80240F3
:1058100068460DF0D7F806E0224629463046FCF7E8
:1058200015FA0DF067F80028F6D103F067F87CBD93
:10583000104000202DE9FF4F89B098460446DDF85E
:10584000589001F061FA314F314BE66838681B68B7
:10585000B4F800B0427CB4F802A021463046984724
:10586000050005D1E088012800D001E03868856B8B
:105870001EB1307908B1022000E0002002F060FD86
:10588000069038680A99C26C5718016D0B98ADF8EC
:105890001C700E18781E0BFB0800ADF82000701E5F
:1058A0000AFB0900ADF82200ADF81E6007A80DF054
:1058B00089F820E0206968B1D4E9023CCDE9003CD8
:1058C000CDE90289D0F800C0638822883146384685
:1058D000E0470EE0A188E288A068CDE90221CDE989
:1058E000040553465A4631463846CDE9008904F04E
:1058F0002DFE0CF0FFFF0028DCD1069802F020FD01
:105900000DB0BDE8F04F02F0F9BF000010400020DC
:10591000084000207CB514460D46064601F0F4F917
:1059200010480068C16C006D0E440544301BADF892
:1059300000003019ADF80400281BADF8020028194A
:10594000ADF8060068460DF03DF806E0224629460F
:105950003046FCF7C9F90CF0CDFF0028F6D102F073
:10596000CDFF7CBD104000201CB50A4601466846AC
:1059700004F05DF801F0C8F92548BDF80010006892
:1059800030F84C2F1144ADF80010BDF80210828899
:105990001144ADF80210BDF8041002881144ADF8AE
:1059A0000410BDF8061080880844ADF8060068466B
:1059B0000DF008F827E000BFBDF900400BE000BF84
:1059C000BDF90210204604F0EFFEBDF90610204696
:1059D00004F0EAFEA41CBDF90400A042F0DABDF90F
:1059E00002400AE0BDF90000214604F0DDFEBDF9E9
:1059F0000400214604F0D8FEA41CBDF90600A04214
:105A0000F0DA0CF077FF0028D6D102F077FF1CBD4A
:105A1000104000202DE9F04F87B09B46DDE910983B
:105A200092460C46054601F06FF916480168C86CAD
:105A3000096D47190E1900EB0A0501EB0B04ADF8CF
:105A40001070ADF81450ADF81260ADF8164004A80F
:105A50000CF0B8FF88B1DFF830B04FF0000ACDE9A4
:105A60000098CDE902BA2B4622463946304614F05A
:105A700029FC0CF03FFF0028F1D102F03FFF07B0F6
:105A8000BDE8F08F1040002035A800082DE9F04F48
:105A900087B09B46DDE9109892460C46054601F01A
:105AA00033F916480168C86C096D47190E1900EBE7
:105AB0000A0501EB0B04ADF81070ADF81450ADF809
:105AC0001260ADF8164004A80CF07CFF88B1DFF836
:105AD00030B04FF0010ACDE90098CDE902BA234673
